:100000000C9434000C9451000C9451000C94510049
:100010000C9451000C9451000C9451000C9451001C
:100020000C9451000C949F020C9451000C945100BC
:100030000C9451000C9439030C9451000C94510011
:100040000C9427040C9451000C941C050C944A0544
:100050000C9451000C9451000C9451000C945100DC
:100060000C9451000C94510011241FBECFEFD8E026
:10007000DEBFCDBF11E0A0E0B1E0E4E2FEE002C0EF
:1000800005900D92AC35B107D9F721E0ACE5B1E0B0
:1000900001C01D92A33BB207E1F70E9442010C94FC
:1000A00010070C940000FC01408121E030E002C008
:1000B000220F331F6A95E2F7242B20830895FC0159
:1000C000808121E030E002C0220F331F6A95E2F701
:1000D0002095822380838081818128232183089534
:1000E000FC01908121E030E002C0220F331F6A95AD
:1000F000E2F72095292320830895FC01408121E027
:1001000030E002C0220F331F6A95E2F7242B2083D0
:100110000895FC01408121E030E002C0220F331F2E
:100120006A95E2F7242720830895FC01808190E0FE
:1001300002C0959587956A95E2F781700895299A8E
:1001400085E08A95F1F7000029980895CF93C82F8C
:10015000662311F0289A01C02898549A559A569A05
:10016000579A5F985E985D985C98CC230CF45F9AE0
:10017000C6FD5E9AC5FD5D9AC4FD5C9A0E949F0013
:100180005F985E985D985C98C3FD5F9AC2FD5E9A29
:10019000C1FD5D9AC0FD5C9A0E949F005C9A5D9AC9
:1001A0005E9A5F9A87EB9BE00197F1F700C0000031
:1001B000CF91089560E00E94A6000895611104C0E7
:1001C00080580E94DA00089580540E94DA00089551
:1001D00081E00E94DA00089561E00E94A60008957F
:1001E000CF93DF93EC012196FC018081882329F0D5
:1001F0000E94EC0089918111FBCFDF91CF9108958E
:10020000CF93C82F209A559A219A549A559A569A64
:10021000579A8FEF99EF0197F1F700C000005D9AB0
:100220005C9A0E949F008FE19EE40197F1F700C065
:1002300000000E949F008FEF90E00197F1F700C04F
:1002400000000E949F008FEF90E00197F1F700C03F
:1002500000005C980E949F008FEF90E00197F1F7FB
:1002600000C0000088E20E94DA0088E00E94DA0004
:100270000E94E80086E00E94DA008C2F0E94DA00DB
:10028000CF91089564E087E290E00E94530064E01B
:1002900088E290E00E94700065E087E290E00E94B2
:1002A0005F0062E087E290E00E94530062E088E233
:1002B00090E00E94700063E087E290E00E945F009F
:1002C00060E087E290E00E94530060E088E290E006
:1002D0000E94700062E084E290E00E94530063E0BC
:1002E00084E290E00E94530064E084E290E00E9487
:1002F000530065E084E290E00E94530066E084E2EF
:1003000090E00E94530060E08AE290E00E94530077
:1003100061E08AE290E00E94530062E08AE290E0AD
:100320000E94530063E08AE290E00E94530066E07E
:1003300087E290E00E945300E1EBF0E08081897F4A
:100340008083808181608083E0E7F0E0808181604C
:100350008083E1E8F0E080818B7F8083808183600F
:100360008083EFE6F0E080818160808385B58D7FBA
:1003700085BD85B5856085BDEEE6F0E08081816054
:1003800080838CE00E94000160E080E00E94DE003B
:1003900081E091E00E94F00061E080E00E94DE00D8
:1003A00083E191E00E94F00087E690E00E947405EE
:1003B0007894C1E08091690181111CC064E088E2F9
:1003C00090E00E9470008AE08A95F1F700C064E036
:1003D00088E290E00E947D0085E38A95F1F70000B5
:1003E00064E088E290E00E94700010926801C0937F
:1003F000690141C065E086E290E00E94950020918D
:1004000068019C2F813009F090E0992361F08C2FD6
:10041000211180E0882339F010926D0110926C0157
:10042000C093680128C065E086E290E00E949500D4
:10043000209168019C2F811190E09923E1F08C2F8D
:10044000213009F080E08823B1F060916C01709157
:100450006D0180E090E00E94E00525E531EC48E880
:100460005EE30E9446060E94B10570936B016093A3
:100470006A01109269018091630181111CC062E0E0
:1004800088E290E00E9470008AE08A95F1F700C04F
:1004900062E088E290E00E947D0085E38A95F1F7B2
:1004A000000062E088E290E00E9470001092620119
:1004B000C09363017FCF63E086E290E00E949500E5
:1004C000209162019C2F813009F090E0992361F026
:1004D0008C2F211180E0882339F01092670110924F
:1004E0006601C093620166CF63E086E290E00E94FD
:1004F0009500209162019C2F811190E0992309F4CD
:1005000059CF8C2F213009F080E0882309F452CF95
:10051000609166017091670180E090E00E94E005C3
:1005200025E531EC48E85EE30E9446060E94B105ED
:100530007093650160936401109263013BCF1F9239
:100540000F920FB60F9211242F933F934F935F9307
:100550006F937F938F939F93AF93BF93EF93FF938B
:100560008091600190916101019690936101809367
:10057000600120916C0130916D012F5F3F4F3093EE
:100580006D0120936C0120916601309167012F5F0E
:100590003F4F309367012093660140916A0150916B
:1005A0006B0120916401309165012417350738F4FF
:1005B000209164013091650120935F0106C0209174
:1005C0006A0130916B0120935F0120915F013DEC46
:1005D000320F323368F4823E9440D1F510926101BB
:1005E0001092600160E088E290E00E94890030C0D3
:1005F00035EF320F383268F48137924049F560E0C8
:1006000088E290E00E9489001092610110926001DE
:100610001FC03DEF320F383068F488339140C1F489
:1006200060E088E290E00E948900109261011092DF
:1006300060010EC0233060F48C39910549F460E00C
:1006400088E290E00E94890010926101109260019E
:10065000FF91EF91BF91AF919F918F917F916F919A
:100660005F914F913F912F910F900FBE0F901F9070
:1006700018951F920F920FB60F9211242F933F934C
:100680004F935F936F937F938F939F93AF93BF939A
:10069000EF93FF93CF93DF9300D01F92CDB7DEB7D8
:1006A00080915E018F5F80935E0120915D0130E05B
:1006B00040916A0150916B0191E0813009F090E026
:1006C00081E02417350709F480E0882309F492C0FB
:1006D000992309F48FC010925E0180916A01909174
:1006E0006B018039914030F080E991E090936B018B
:1006F00080936A0180916A0190916B01039730F4B5
:1007000082E090E090936B0180936A0180916A018E
:1007100090916B014AE0BE016F5F7F4F0E94DB0644
:1007200060E081E10E94DE0085E291E00E94F0003D
:1007300060E081E10E94DE00CE0101960E94F0009F
:100740008AE291E00E94A205CE0101960E94A205D4
:1007500081E491E00E94A20580916A0190916B0171
:1007600080935D0180916A0190916B018039914085
:1007700020F085B1837885B954C080916A01909149
:100780006B018C32914028F085B1877885B92A9A1F
:1007900048C080916A0190916B01883C910538F0C6
:1007A00085B18F7885B985B18C6085B93AC0809163
:1007B0006A0190916B018436910538F085B18F798B
:1007C00085B985B18C6185B92CC080916A01909101
:1007D0006B01C29728F02E9885B18C6385B921C032
:1007E00080916A0190916B010297D8F085B18C6776
:1007F00085B917C040916A0150916B0181E02417BF
:10080000350709F080E0882361F0992351F01092B8
:10081000690182E090E090936B0180936A011092ED
:100820005E010F900F900F90DF91CF91FF91EF91AC
:10083000BF91AF919F918F917F916F915F914F91F8
:100840003F912F910F900FBE0F901F9018951F9200
:100850000F920FB60F9211242F933F934F935F93F4
:100860006F937F938F939F93AF93BF93EF93FF9378
:10087000CF93DF9300D01F92CDB7DEB780915C019C
:100880008F5F80935C012091000130E04091640112
:100890005091650191E0803109F090E0992309F4CD
:1008A0009AC091E02417350709F490E0992309F4E0
:1008B00092C010925C018091640190916501803931
:1008C000914030F080E991E090936501809364015C
:1008D0008091640190916501039730F482E090E08B
:1008E000909365018093640180916401909165010A
:1008F0004AE0BE016F5F7F4F0E94DB0661E081E14D
:100900000E94DE0085E291E00E94F00061E081E15A
:100910000E94DE00CE0101960E94F00084E491E086
:100920000E94A205CE0101960E94A20581E491E0F9
:100930000E94A2058091640190916501809300015D
:1009400080916401909165018039914028F08BB1CC
:10095000807F8BB946985AC080916401909165015F
:100960008C32914030F08BB1817F8BB94698589A88
:100970004DC08091640190916501883C910540F0E3
:100980008BB1837F8BB946988BB183608BB93EC0A6
:1009900080916401909165018436910530F05B98F7
:1009A00046988BB187608BB931C08091640190917A
:1009B0006501C29728F046988BB18F608BB926C02D
:1009C0008091640190916501029700F1469A8BB184
:1009D0008F608BB91BC0409164015091650191E01B
:1009E0008E3009F090E0992389F081E024173507D3
:1009F00009F080E0882351F01092630182E090E0DA
:100A0000909365018093640110925C010F900F90A8
:100A10000F90DF91CF91FF91EF91BF91AF919F9197
:100A20008F917F916F915F914F913F912F910F9097
:100A30000FBE0F901F9018951F920F920FB60F9236
:100A400011242F938F939F93EF93FF938091C00076
:100A50002091C6008C71E0917001EF5FEF71909171
:100A60006F01E91739F0E0937001F0E0ED58FE4FA7
:100A7000208301C082E090916E01892B80936E01EA
:100A8000FF91EF919F918F912F910F900FBE0F903B
:100A90001F9018951F920F920FB60F9211248F93EB
:100AA0009F93EF93FF93909172018091710198173A
:100AB00069F0E0917101EF5FEF71E0937101F0E097
:100AC000ED56FE4F80818093C60005C0E1ECF0E05A
:100AD00080818F7D8083FF91EF919F918F910F9007
:100AE0000FBE0F901F901895109272011092710115
:100AF0001092700110926F0199231CF422E0209350
:100B0000C00090789093C5008093C40088E98093DA
:100B1000C10086E08093C2000895209172012F5F8A
:100B20002F71909171012917E1F3E22FF0E0ED565A
:100B3000FE4F808320937201E1ECF0E080818062BF
:100B400080830895CF93DF93EC018881882331F06F
:100B500021960E948D0589918111FBCFDF91CF9164
:100B600008950E94250688F09F5798F0B92F99277D
:100B7000B751B0F0E1F0660F771F881F991F1AF088
:100B8000BA95C9F714C0B13091F00E943F06B1E0A8
:100B900008950C943F06672F782F8827B85F39F0A7
:100BA000B93FCCF3869577956795B395D9F73EF421
:100BB00090958095709561957F4F8F4F9F4F0895C9
:100BC000E89409C097FB3EF49095809570956195E7
:100BD0007F4F8F4F9F4F9923A9F0F92F96E9BB279D
:100BE0009395F695879577956795B795F111F8CF19
:100BF000FAF4BB0F11F460FF1BC06F5F7F4F8F4F84
:100C00009F4F16C0882311F096E911C0772321F079
:100C10009EE8872F762F05C0662371F096E8862F11
:100C200070E060E02AF09A95660F771F881FDAF768
:100C3000880F9695879597F9089557FD9058440F1A
:100C4000551F59F05F3F71F04795880F97FB991F2B
:100C500061F09F3F79F087950895121613061406E8
:100C6000551FF2CF4695F1DF08C016161706180675
:100C7000991FF1CF86957105610508940895E89450
:100C8000BB2766277727CB0197F908950E9459065D
:100C90000C94CA060E94BC0638F00E94C30620F0DD
:100CA000952311F00C94B3060C94B90611240C94FE
:100CB00040060E941D0670F3959FC1F3950F50E00A
:100CC000551F629FF001729FBB27F00DB11D639FFE
:100CD000AA27F00DB11DAA1F649F6627B00DA11DA4
:100CE000661F829F2227B00DA11D621F739FB00D4A
:100CF000A11D621F839FA00D611D221F749F3327BA
:100D0000A00D611D231F849F600D211D822F762F52
:100D10006A2F11249F5750409AF0F1F088234AF02F
:100D2000EE0FFF1FBB1F661F771F881F915050409B
:100D3000A9F79E3F510580F00C94B3060C94400631
:100D40005F3FE4F3983ED4F3869577956795B79522
:100D5000F795E7959F5FC1F7FE2B880F911D96953C
:100D6000879597F9089597F99F6780E870E060E0AC
:100D700008959FEF80EC089500240A941616170634
:100D800018060906089500240A941216130614067C
:100D900005060895092E0394000C11F4882352F0DF
:100DA000BB0F40F4BF2B11F460FF04C06F5F7F4F97
:100DB0008F4F9F4F0895BB274A3031F4992322F477
:100DC000BDE2909581959F4F0C94E706BB27FB01F0
:100DD0005527AA27880F991FAA1FA41710F0A41B34
:100DE00083955051B9F7A05DAA3308F0A95DA1938E
:100DF000009779F7B111B1931192CB010C940007D0
:100E0000DC01FC01672F71917723E1F7329704C071
:100E10007C916D9370836291AE17BF07C8F30895FC
:040E2000F894FFCF74
:100E2400014C2044697374616E636520696E2063AC
:100E34006D3A00522044697374616E636520696E73
:100E440020636D3A002020202000204C6566742029
:100E540064697374616E636520696E20636D3A2002
:100E6400000A0D0052696768742064697374616EC6
:0C0E7400636520696E20636D3A20000069
:00000001FF
