:100000000C9434000C9451000C9451000C94510049
:100010000C9451000C9451000C9451000C9451001C
:100020000C9451000C9433010C9451000C94510029
:100030000C9451000C9451000C9451000C945100FC
:100040000C94FB010C9451000C9451000C94510041
:100050000C9451000C9451000C9451000C945100DC
:100060000C9451000C94510011241FBECFEFD8E026
:10007000DEBFCDBF11E0A0E0B1E0EEEFF4E002C0E2
:1000800005900D92A833B107D9F721E0A8E3B1E0BC
:1000900001C01D92A034B207E1F70E94FA000C944F
:1000A0007D020C940000299A85E08A95F1F7000002
:1000B00029980895CF93C82F662311F0289A01C07C
:1000C0002898549A559A569A579A5F985E985D98D0
:1000D0005C98CC230CF45F9AC6FD5E9AC5FD5D9AD0
:1000E000C4FD5C9A0E9453005F985E985D985C988E
:1000F000C3FD5F9AC2FD5E9AC1FD5D9AC0FD5C9A28
:100100000E9453005C9A5D9A5E9A5F9A87EB9BE02F
:100110000197F1F700C00000CF91089560E00E94C0
:100120005A00089561E00E945A000895611104C0C8
:1001300080580E948E00089580540E948E00089579
:1001400081E00E948E00089561E00E945A000895A7
:10015000CF93DF93EC012196FC018081882329F065
:100160000E94A40089918111FBCFDF91CF91089566
:10017000CF93C82F209A559A219A549A559A569AF5
:10018000579A8FEF99EF0197F1F700C000005D9A41
:100190005C9A0E9453008FE19EE40197F1F700C042
:1001A00000000E9453008FEF90E00197F1F700C02C
:1001B00000000E9453008FEF90E00197F1F700C01C
:1001C00000005C980E9453008FEF90E00197F1F7D8
:1001D00000C0000088E20E948E0088E00E948E002D
:1001E0000E94A00086E00E948E008C2F0E948E004C
:1001F000CF9108958CE00E94B80080E40E948E00A8
:10020000C0E0D1E000E311E089910E949200C017A4
:10021000D107D1F780E80E948E0080E00E94A40000
:1002200060E081E00E94960080E391E00E94A800D7
:1002300060E08BE00E94960085B58D7F85BD85B519
:10024000856085BDEEE6F0E0808181608083E1EB32
:10025000F0E0808187608083E0E7F0E0808181606A
:1002600080837894FFCF1F920F920FB60F921124C4
:100270002F933F934F935F936F937F938F939F93AE
:10028000AF93BF93EF93FF93CF93DF9300D0CDB79E
:10029000DEB780E290E29A83898380913F018F5F8D
:1002A000863018F480933F0191C010923F018091F5
:1002B0003E018F5F8A3018F480933E0116C0109281
:1002C0003E0180913D018F5F8C3318F480933D0196
:1002D0000CC010923D0180913C018F5F8C3318F46B
:1002E00080933C0102C010923C0180913E014AE0A3
:1002F000BE016F5F7F4F90E00E94480260E087E0A0
:100300000E949600CE0101960E94A80080913D01B6
:100310004AE0BE016F5F7F4F90E00E94480260E0BC
:1003200084E00E94960080913D018A3040F480E391
:100330000E94A400CE0101960E94A80004C0CE0134
:1003400001960E94A80080913C014AE0BE016F5FC7
:100350007F4F90E00E94480260E081E00E9496009A
:1003600080913C018A3040F480E30E94A400CE01D9
:1003700001960E94A80004C0CE0101960E94A80028
:1003800080913D01889FC001112490933B0180938F
:100390003A014AE0BE016F5F7F4F0E94480260E071
:1003A0008BE00E949600CE0101960E94A8008091E9
:1003B0003A0190913B01892B49F480E20E94A4000C
:1003C00080E20E94A40080E20E94A4000F900F909F
:1003D000DF91CF91FF91EF91BF91AF919F918F915D
:1003E0007F916F915F914F913F912F910F900FBE31
:1003F0000F901F9018951F920F920FB60F92112415
:100400002F933F934F935F936F937F938F939F931C
:10041000AF93BF93CF93EF93FF93809139018F5F99
:10042000863018F48093390117C0109239018091F9
:1004300038018F5F8A3018F4809338010DC0109214
:100440003801C1E0CF5F61E08C2F0E94960080E20E
:100450000E94A400CA30B1F78091380161E08F5F3B
:100460000E949600809139010E94A400FF91EF91B3
:10047000CF91BF91AF919F918F917F916F915F913C
:100480004F913F912F910F900FBE0F901F90189595
:10049000BB274A3031F4992322F4BDE2909581952F
:1004A0009F4F0C945402BB27FB015527AA27880FA6
:1004B000991FAA1FA41710F0A41B83955051B9F7D8
:1004C000A05DAA3308F0A95DA193009779F7B11157
:1004D000B1931192CB010C946D02DC01FC01672FEA
:1004E00071917723E1F7329704C07C916D9370830B
:0E04F0006291AE17BF07C8F30895F894FFCFCE
:1004FE00000000000000000010101010101010106E
:10050E0018181818181818181C1C1C1C1C1C1C1C3D
:10051E001E1E1E1E1E1E1E1E1F1F1F1F1F1F1F1FE5
:08052E0030303A30302E30006D
:00000001FF
